:020000040000FA
:06000000F5EF00F0120014
:020006001200E6
:0600080016EF00F01200EB
:02000E000000F0
:0400100000000000EC
:0600180026EF00F01200CB
:02001E000100DF
:0C0020000E0000008A0000000600000036
:04002C00DACFE4FF44
:10003000E2CFDAFFE6529EA005D09E908174F00ECA
:10004000CF6ECE6AE552E5CFDAFF1100DACFE4FFDA
:10005000E2CFDAFFE652E552E5CFDAFF1100100EEB
:10006000926EF00E936E8190819281948196010E32
:10007000C26E0E0EC16E290EC06E818000018A6BA9
:100080008B6BD8908B5104E6100E8A5D270E8B592E
:1000900008E2E70E8C6F030E8D6F8A2B000E8B2308
:1000A000F0D781908A6B8B6BD8908B5104E6100E41
:1000B0008A5D270E8B5908E2E70E8C6F030E8D6F59
:1000C0008A2B000E8B23F0D780B802D0818202D019
:1000D00080B88192C282C2B2FED7C45000018E6F36
:1000E0008F6B640E8FAF02D0D89003D08E5D000E60
:1000F0008F5902E2819609D0D8908F5104E6640EA0
:100100008E5D000E8F5901E38186B7D7F28CF28E97
:100110009D809E900B0ECD6EF00ECF6ECE6A0001CC
:0C012000E70E8C6F030E8D6FFAD71200F3
:04012C001E0EF66E3F
:10013000000EF76E000EF86E00010900F550856F95
:100140000900F550866F03E1856701D03DD00900B5
:10015000F550806F0900F550816F0900F550826FEE
:1001600009000900F550E96E0900F550EA6E090032
:1001700009000900F550836F0900F550846F0900EC
:100180000900F6CF87F0F7CF88F0F8CF89F080C06C
:10019000F6FF81C0F7FF82C0F8FF0001835302E140
:1001A000845307E00900F550EE6E8307F8E28407F8
:1001B000F9D787C0F6FF88C0F7FF89C0F8FF0001B4
:0A01C0008507000E865BBFD7120012
:0601CA00000EF36E00EED2
:1001D00000F0060E01D81200EA6002D0EE6AFCD7E9
:0A01E000F350E9601200EE6AFCD74C
:0601EA0015EE00F025EE09
:1001F00000F0F86A019C96EC00F003EC00F02FECA4
:0602000000F0FBD7120024
:00000001FF
